{
  "contractName": "Saarthi",
  "abi": [
    {
      "inputs": [],
      "stateMutability": "nonpayable",
      "type": "constructor"
    },
    {
      "anonymous": false,
      "inputs": [
        {
          "indexed": true,
          "internalType": "address",
          "name": "sender",
          "type": "address"
        },
        {
          "indexed": true,
          "internalType": "address",
          "name": "receiver",
          "type": "address"
        },
        {
          "indexed": false,
          "internalType": "uint256",
          "name": "amount",
          "type": "uint256"
        }
      ],
      "name": "donatationToCampaign",
      "type": "event"
    },
    {
      "anonymous": false,
      "inputs": [
        {
          "indexed": true,
          "internalType": "uint256",
          "name": "fund_id",
          "type": "uint256"
        },
        {
          "indexed": true,
          "internalType": "address",
          "name": "sender",
          "type": "address"
        },
        {
          "indexed": true,
          "internalType": "address",
          "name": "receiver",
          "type": "address"
        },
        {
          "indexed": false,
          "internalType": "uint256",
          "name": "amount",
          "type": "uint256"
        }
      ],
      "name": "donatationToFund",
      "type": "event"
    },
    {
      "anonymous": false,
      "inputs": [
        {
          "indexed": true,
          "internalType": "uint256",
          "name": "taskID",
          "type": "uint256"
        },
        {
          "indexed": false,
          "internalType": "string",
          "name": "_modelHash",
          "type": "string"
        },
        {
          "indexed": false,
          "internalType": "uint256",
          "name": "_time",
          "type": "uint256"
        }
      ],
      "name": "modelUpdated",
      "type": "event"
    },
    {
      "anonymous": false,
      "inputs": [
        {
          "indexed": true,
          "internalType": "uint256",
          "name": "taskID",
          "type": "uint256"
        },
        {
          "indexed": true,
          "internalType": "address",
          "name": "_user",
          "type": "address"
        },
        {
          "indexed": false,
          "internalType": "string",
          "name": "_modelHash",
          "type": "string"
        },
        {
          "indexed": false,
          "internalType": "uint256",
          "name": "_amt",
          "type": "uint256"
        },
        {
          "indexed": false,
          "internalType": "uint256",
          "name": "_time",
          "type": "uint256"
        }
      ],
      "name": "newTaskCreated",
      "type": "event"
    },
    {
      "inputs": [
        {
          "internalType": "uint256",
          "name": "",
          "type": "uint256"
        }
      ],
      "name": "Campaigns",
      "outputs": [
        {
          "internalType": "address",
          "name": "",
          "type": "address"
        }
      ],
      "stateMutability": "view",
      "type": "function",
      "constant": true
    },
    {
      "inputs": [
        {
          "internalType": "uint256",
          "name": "",
          "type": "uint256"
        }
      ],
      "name": "Funds",
      "outputs": [
        {
          "internalType": "uint256",
          "name": "orgID",
          "type": "uint256"
        },
        {
          "internalType": "string",
          "name": "orgName",
          "type": "string"
        },
        {
          "internalType": "string",
          "name": "fundName",
          "type": "string"
        },
        {
          "internalType": "address payable",
          "name": "fundAddress",
          "type": "address"
        },
        {
          "internalType": "uint256",
          "name": "donationAmount",
          "type": "uint256"
        },
        {
          "internalType": "uint256",
          "name": "donationCnt",
          "type": "uint256"
        }
      ],
      "stateMutability": "view",
      "type": "function",
      "constant": true
    },
    {
      "inputs": [
        {
          "internalType": "uint256",
          "name": "",
          "type": "uint256"
        }
      ],
      "name": "Reports",
      "outputs": [
        {
          "internalType": "address",
          "name": "userAddress",
          "type": "address"
        },
        {
          "internalType": "string",
          "name": "userName",
          "type": "string"
        },
        {
          "internalType": "string",
          "name": "location",
          "type": "string"
        },
        {
          "internalType": "string",
          "name": "file",
          "type": "string"
        },
        {
          "internalType": "string",
          "name": "details",
          "type": "string"
        }
      ],
      "stateMutability": "view",
      "type": "function",
      "constant": true
    },
    {
      "inputs": [
        {
          "internalType": "uint256",
          "name": "",
          "type": "uint256"
        }
      ],
      "name": "SaarthiTasks",
      "outputs": [
        {
          "internalType": "uint256",
          "name": "taskID",
          "type": "uint256"
        },
        {
          "internalType": "uint256",
          "name": "currentRound",
          "type": "uint256"
        },
        {
          "internalType": "uint256",
          "name": "totalRounds",
          "type": "uint256"
        },
        {
          "internalType": "uint256",
          "name": "cost",
          "type": "uint256"
        }
      ],
      "stateMutability": "view",
      "type": "function",
      "constant": true
    },
    {
      "inputs": [],
      "name": "UserCnt",
      "outputs": [
        {
          "internalType": "uint256",
          "name": "",
          "type": "uint256"
        }
      ],
      "stateMutability": "view",
      "type": "function",
      "constant": true
    },
    {
      "inputs": [
        {
          "internalType": "address",
          "name": "",
          "type": "address"
        },
        {
          "internalType": "uint256",
          "name": "",
          "type": "uint256"
        }
      ],
      "name": "UserTaskIDs",
      "outputs": [
        {
          "internalType": "uint256",
          "name": "",
          "type": "uint256"
        }
      ],
      "stateMutability": "view",
      "type": "function",
      "constant": true
    },
    {
      "inputs": [
        {
          "internalType": "address",
          "name": "",
          "type": "address"
        }
      ],
      "name": "Users",
      "outputs": [
        {
          "internalType": "address payable",
          "name": "userAddress",
          "type": "address"
        },
        {
          "internalType": "uint256",
          "name": "recordHistoryCnt",
          "type": "uint256"
        },
        {
          "internalType": "uint256",
          "name": "billAmount",
          "type": "uint256"
        },
        {
          "internalType": "uint256",
          "name": "donationCnt",
          "type": "uint256"
        },
        {
          "internalType": "bool",
          "name": "hasCampaign",
          "type": "bool"
        },
        {
          "internalType": "string",
          "name": "campaignData",
          "type": "string"
        },
        {
          "internalType": "bool",
          "name": "hasAllowedResearch",
          "type": "bool"
        }
      ],
      "stateMutability": "view",
      "type": "function",
      "constant": true
    },
    {
      "inputs": [],
      "name": "campaignCnt",
      "outputs": [
        {
          "internalType": "uint256",
          "name": "",
          "type": "uint256"
        }
      ],
      "stateMutability": "view",
      "type": "function",
      "constant": true
    },
    {
      "inputs": [],
      "name": "fundCnt",
      "outputs": [
        {
          "internalType": "uint256",
          "name": "",
          "type": "uint256"
        }
      ],
      "stateMutability": "view",
      "type": "function",
      "constant": true
    },
    {
      "inputs": [],
      "name": "reportCnt",
      "outputs": [
        {
          "internalType": "uint256",
          "name": "",
          "type": "uint256"
        }
      ],
      "stateMutability": "view",
      "type": "function",
      "constant": true
    },
    {
      "inputs": [],
      "name": "totalDonationAmount",
      "outputs": [
        {
          "internalType": "uint256",
          "name": "",
          "type": "uint256"
        }
      ],
      "stateMutability": "view",
      "type": "function",
      "constant": true
    },
    {
      "inputs": [],
      "name": "totalDonationCnt",
      "outputs": [
        {
          "internalType": "uint256",
          "name": "",
          "type": "uint256"
        }
      ],
      "stateMutability": "view",
      "type": "function",
      "constant": true
    },
    {
      "inputs": [
        {
          "internalType": "address",
          "name": "_newOwner",
          "type": "address"
        }
      ],
      "name": "updateOwner",
      "outputs": [],
      "stateMutability": "nonpayable",
      "type": "function"
    },
    {
      "inputs": [
        {
          "internalType": "string",
          "name": "_modelHash",
          "type": "string"
        },
        {
          "internalType": "uint256",
          "name": "_rounds",
          "type": "uint256"
        }
      ],
      "name": "createTask",
      "outputs": [],
      "stateMutability": "payable",
      "type": "function",
      "payable": true
    },
    {
      "inputs": [
        {
          "internalType": "uint256",
          "name": "_taskID",
          "type": "uint256"
        },
        {
          "internalType": "string",
          "name": "_modelHash",
          "type": "string"
        },
        {
          "internalType": "address payable",
          "name": "computer",
          "type": "address"
        }
      ],
      "name": "updateModelForTask",
      "outputs": [],
      "stateMutability": "nonpayable",
      "type": "function"
    },
    {
      "inputs": [],
      "name": "getTaskCount",
      "outputs": [
        {
          "internalType": "uint256",
          "name": "",
          "type": "uint256"
        }
      ],
      "stateMutability": "view",
      "type": "function",
      "constant": true
    },
    {
      "inputs": [],
      "name": "getTasksOfUser",
      "outputs": [
        {
          "internalType": "uint256[]",
          "name": "",
          "type": "uint256[]"
        }
      ],
      "stateMutability": "view",
      "type": "function",
      "constant": true
    },
    {
      "inputs": [
        {
          "internalType": "string",
          "name": "_orgName",
          "type": "string"
        },
        {
          "internalType": "string",
          "name": "_fundName",
          "type": "string"
        },
        {
          "internalType": "address payable",
          "name": "_orgAdress",
          "type": "address"
        }
      ],
      "name": "createFund",
      "outputs": [],
      "stateMutability": "nonpayable",
      "type": "function"
    },
    {
      "inputs": [
        {
          "internalType": "uint256",
          "name": "_fundID",
          "type": "uint256"
        }
      ],
      "name": "donateToFund",
      "outputs": [],
      "stateMutability": "payable",
      "type": "function",
      "payable": true
    },
    {
      "inputs": [],
      "name": "addUser",
      "outputs": [],
      "stateMutability": "nonpayable",
      "type": "function"
    },
    {
      "inputs": [
        {
          "internalType": "string",
          "name": "_recordHash",
          "type": "string"
        }
      ],
      "name": "addRecord",
      "outputs": [],
      "stateMutability": "nonpayable",
      "type": "function"
    },
    {
      "inputs": [
        {
          "internalType": "address",
          "name": "_user",
          "type": "address"
        },
        {
          "internalType": "uint256",
          "name": "_index",
          "type": "uint256"
        }
      ],
      "name": "getRecord",
      "outputs": [
        {
          "internalType": "string",
          "name": "records",
          "type": "string"
        }
      ],
      "stateMutability": "view",
      "type": "function",
      "constant": true
    },
    {
      "inputs": [
        {
          "internalType": "address",
          "name": "_user",
          "type": "address"
        }
      ],
      "name": "getDonationAmounts",
      "outputs": [
        {
          "internalType": "uint256[]",
          "name": "donationAmounts",
          "type": "uint256[]"
        }
      ],
      "stateMutability": "view",
      "type": "function",
      "constant": true
    },
    {
      "inputs": [
        {
          "internalType": "address",
          "name": "_user",
          "type": "address"
        }
      ],
      "name": "getDonationAddresses",
      "outputs": [
        {
          "internalType": "address[]",
          "name": "donationAddresses",
          "type": "address[]"
        }
      ],
      "stateMutability": "view",
      "type": "function",
      "constant": true
    },
    {
      "inputs": [
        {
          "internalType": "address",
          "name": "_address",
          "type": "address"
        }
      ],
      "name": "allowAccessToUser",
      "outputs": [],
      "stateMutability": "nonpayable",
      "type": "function"
    },
    {
      "inputs": [],
      "name": "allowAccessToResearch",
      "outputs": [],
      "stateMutability": "nonpayable",
      "type": "function"
    },
    {
      "inputs": [],
      "name": "revokeAccessToResearch",
      "outputs": [],
      "stateMutability": "nonpayable",
      "type": "function"
    },
    {
      "inputs": [],
      "name": "getAccessors",
      "outputs": [
        {
          "internalType": "address[]",
          "name": "",
          "type": "address[]"
        }
      ],
      "stateMutability": "view",
      "type": "function",
      "constant": true
    },
    {
      "inputs": [
        {
          "internalType": "address",
          "name": "_user",
          "type": "address"
        }
      ],
      "name": "donateToUser",
      "outputs": [],
      "stateMutability": "payable",
      "type": "function",
      "payable": true
    },
    {
      "inputs": [
        {
          "internalType": "uint256",
          "name": "_amt",
          "type": "uint256"
        }
      ],
      "name": "billUser",
      "outputs": [],
      "stateMutability": "nonpayable",
      "type": "function"
    },
    {
      "inputs": [
        {
          "internalType": "string",
          "name": "_campaignData",
          "type": "string"
        }
      ],
      "name": "createCampaign",
      "outputs": [],
      "stateMutability": "nonpayable",
      "type": "function"
    },
    {
      "inputs": [],
      "name": "stopCampaign",
      "outputs": [],
      "stateMutability": "nonpayable",
      "type": "function"
    },
    {
      "inputs": [
        {
          "internalType": "string",
          "name": "_userName",
          "type": "string"
        },
        {
          "internalType": "string",
          "name": "_location",
          "type": "string"
        },
        {
          "internalType": "string",
          "name": "_file",
          "type": "string"
        },
        {
          "internalType": "string",
          "name": "_details",
          "type": "string"
        }
      ],
      "name": "fileReport",
      "outputs": [],
      "stateMutability": "nonpayable",
      "type": "function"
    }
  ],
  "bytecode": "0x6080604052600180546001600160a01b03191673beb71662ff9c08afef3866f85a6591d4aebe6e4e1781556002556000600581905560068190556007819055600a819055600d819055600f5534801561005757600080fd5b50600080546001600160a01b03191633179055613060806100796000396000f3fe6080604052600436106101ee5760003560e01c8063880cdc311161010d578063d6857f15116100a0578063e3f2d24f1161006f578063e3f2d24f14610e22578063eee9b99e14610e37578063f1b95b6d14610f20578063f8659d0014610f53578063fdbf9ff114610f68576101ee565b8063d6857f1514610d1d578063d81aa8c414610d47578063df8fc3fd14610df8578063e1c7dbe314610e0d576101ee565b80639defe751116100dc5780639defe75114610c30578063c17a340e14610c45578063cd5e548314610c5a578063cdb8acf014610c6f576101ee565b8063880cdc3114610ad357806390da79d414610b06578063974cf54614610b3957806399b956a014610b4e576101ee565b80634013be101161018557806360b6a3701161015457806360b6a3701461097e5780636946c5e9146109a45780636a652072146109dd57806375a269a514610a10576101ee565b80634013be10146106ef578063455c928c14610735578063467f2cd81461074a5780636092a5021461092e576101ee565b806317849646116101c1578063178496461461033257806318e94d88146103595780632e0f5e431461036e57806331238d52146104af576101ee565b806304fe2b34146101f357806311cd13ac1461029b5780631403a131146102b857806316f1bc221461031d575b600080fd5b6102996004803603604081101561020957600080fd5b810190602081018135600160201b81111561022357600080fd5b82018360208201111561023557600080fd5b803590602001918460018302840111600160201b8311171561025657600080fd5b91908080601f0160208091040260200160405190810160405280939291908181526020018383808284376000920191909152509295505091359250611019915050565b005b610299600480360360208110156102b157600080fd5b5035611243565b3480156102c457600080fd5b506102cd6113a3565b60408051602080825283518183015283519192839290830191858101910280838360005b838110156103095781810151838201526020016102f1565b505050509050019250505060405180910390f35b34801561032957600080fd5b5061029961146b565b34801561033e57600080fd5b5061034761157f565b60408051918252519081900360200190f35b34801561036557600080fd5b50610299611585565b34801561037a57600080fd5b506102996004803603606081101561039157600080fd5b810190602081018135600160201b8111156103ab57600080fd5b8201836020820111156103bd57600080fd5b803590602001918460018302840111600160201b831117156103de57600080fd5b91908080601f0160208091040260200160405190810160405280939291908181526020018383808284376000920191909152509295949360208101935035915050600160201b81111561043057600080fd5b82018360208201111561044257600080fd5b803590602001918460018302840111600160201b8311171561046357600080fd5b91908080601f016020809104026020016040519081016040528093929190818152602001838380828437600092019190915250929550505090356001600160a01b031691506115fd9050565b3480156104bb57600080fd5b50610299600480360360808110156104d257600080fd5b810190602081018135600160201b8111156104ec57600080fd5b8201836020820111156104fe57600080fd5b803590602001918460018302840111600160201b8311171561051f57600080fd5b91908080601f0160208091040260200160405190810160405280939291908181526020018383808284376000920191909152509295949360208101935035915050600160201b81111561057157600080fd5b82018360208201111561058357600080fd5b803590602001918460018302840111600160201b831117156105a457600080fd5b91908080601f0160208091040260200160405190810160405280939291908181526020018383808284376000920191909152509295949360208101935035915050600160201b8111156105f657600080fd5b82018360208201111561060857600080fd5b803590602001918460018302840111600160201b8311171561062957600080fd5b91908080601f0160208091040260200160405190810160405280939291908181526020018383808284376000920191909152509295949360208101935035915050600160201b81111561067b57600080fd5b82018360208201111561068d57600080fd5b803590602001918460018302840111600160201b831117156106ae57600080fd5b91908080601f0160208091040260200160405190810160405280939291908181526020018383808284376000920191909152509295506116db945050505050565b3480156106fb57600080fd5b506107196004803603602081101561071257600080fd5b503561180c565b604080516001600160a01b039092168252519081900360200190f35b34801561074157600080fd5b50610299611836565b34801561075657600080fd5b506107746004803603602081101561076d57600080fd5b5035611a2a565b60405180866001600160a01b0316815260200180602001806020018060200180602001858103855289818151815260200191508051906020019080838360005b838110156107cc5781810151838201526020016107b4565b50505050905090810190601f1680156107f95780820380516001836020036101000a031916815260200191505b5085810384528851815288516020918201918a019080838360005b8381101561082c578181015183820152602001610814565b50505050905090810190601f1680156108595780820380516001836020036101000a031916815260200191505b50858103835287518152875160209182019189019080838360005b8381101561088c578181015183820152602001610874565b50505050905090810190601f1680156108b95780820380516001836020036101000a031916815260200191505b50858103825286518152865160209182019188019080838360005b838110156108ec5781810151838201526020016108d4565b50505050905090810190601f1680156109195780820380516001836020036101000a031916815260200191505b50995050505050505050505060405180910390f35b34801561093a57600080fd5b506109586004803603602081101561095157600080fd5b5035611ca3565b604080519485526020850193909352838301919091526060830152519081900360800190f35b6102996004803603602081101561099457600080fd5b50356001600160a01b0316611ccc565b3480156109b057600080fd5b50610347600480360360408110156109c757600080fd5b506001600160a01b038135169060200135611e3b565b3480156109e957600080fd5b5061029960048036036020811015610a0057600080fd5b50356001600160a01b0316611e6c565b348015610a1c57600080fd5b5061029960048036036060811015610a3357600080fd5b81359190810190604081016020820135600160201b811115610a5457600080fd5b820183602082011115610a6657600080fd5b803590602001918460018302840111600160201b83111715610a8757600080fd5b91908080601f016020809104026020016040519081016040528093929190818152602001838380828437600092019190915250929550505090356001600160a01b03169150611f079050565b348015610adf57600080fd5b5061029960048036036020811015610af657600080fd5b50356001600160a01b031661217d565b348015610b1257600080fd5b506102cd60048036036020811015610b2957600080fd5b50356001600160a01b03166121eb565b348015610b4557600080fd5b506103476122c0565b348015610b5a57600080fd5b50610b8160048036036020811015610b7157600080fd5b50356001600160a01b03166122c6565b60405180886001600160a01b031681526020018781526020018681526020018581526020018415158152602001806020018315158152602001828103825284818151815260200191508051906020019080838360005b83811015610bef578181015183820152602001610bd7565b50505050905090810190601f168015610c1c5780820380516001836020036101000a031916815260200191505b509850505050505050505060405180910390f35b348015610c3c57600080fd5b5061029961239d565b348015610c5157600080fd5b50610347612412565b348015610c6657600080fd5b50610347612428565b348015610c7b57600080fd5b50610ca860048036036040811015610c9257600080fd5b506001600160a01b03813516906020013561242e565b6040805160208082528351818301528351919283929083019185019080838360005b83811015610ce2578181015183820152602001610cca565b50505050905090810190601f168015610d0f5780820380516001836020036101000a031916815260200191505b509250505060405180910390f35b348015610d2957600080fd5b5061029960048036036020811015610d4057600080fd5b5035612617565b348015610d5357600080fd5b5061029960048036036020811015610d6a57600080fd5b810190602081018135600160201b811115610d8457600080fd5b820183602082011115610d9657600080fd5b803590602001918460018302840111600160201b83111715610db757600080fd5b91908080601f0160208091040260200160405190810160405280939291908181526020018383808284376000920191909152509295506126a3945050505050565b348015610e0457600080fd5b506102cd61272b565b348015610e1957600080fd5b5061034761278b565b348015610e2e57600080fd5b50610347612791565b348015610e4357600080fd5b50610e6160048036036020811015610e5a57600080fd5b5035612797565b604051808781526020018060200180602001866001600160a01b03168152602001858152602001848152602001838103835288818151815260200191508051906020019080838360005b83811015610ec3578181015183820152602001610eab565b50505050905090810190601f168015610ef05780820380516001836020036101000a031916815260200191505b50838103825287518152875160209182019189019080838360008315610bef578181015183820152602001610bd7565b348015610f2c57600080fd5b506102cd60048036036020811015610f4357600080fd5b50356001600160a01b03166128ee565b348015610f5f57600080fd5b506103476129b8565b348015610f7457600080fd5b5061029960048036036020811015610f8b57600080fd5b810190602081018135600160201b811115610fa557600080fd5b820183602082011115610fb757600080fd5b803590602001918460018302840111600160201b83111715610fd857600080fd5b91908080601f0160208091040260200160405190810160405280939291908181526020018383808284376000920191909152509295506129be945050505050565b600a81106110585760405162461bcd60e51b81526004018080602001828103825260278152602001806130046027913960400191505060405180910390fd5b34611061612d09565b6040518060a001604052806002548152602001600181526020018481526020018381526020018467ffffffffffffffff8111801561109e57600080fd5b506040519080825280602002602001820160405280156110d257816020015b60608152602001906001900390816110bd5790505b5081525090508381608001516000815181106110ea57fe5b60200260200101819052508060036000600254815260200190815260200160002060008201518160000155602082015181600101556040820151816002015560608201518160030155608082015181600401908051906020019061114f929190612d38565b5050336000818152600460209081526040808320600280548254600181018455928652848620909201919091555481518084018990524292810183905260608082528b51908201528a5195965090947fceb55fb99742a0d2305c686897f79e89483a9725c0f5493808c9a4787f2a875a948b948a94939283926080840192880191908190849084905b838110156111f05781810151838201526020016111d8565b50505050905090810190601f16801561121d5780820380516001836020036101000a031916815260200191505b5094505050505060405180910390a360025461123a906001612b28565b60025550505050565b60055481111561128c576040805162461bcd60e51b815260206004820152600f60248201526e125b9d985b1a5908119d5b99081251608a1b604482015290519081900360640190fd5b6000818152600860205260409020600401546112a89034612b28565b60008281526008602052604090206004810191909155600501546112cd906001612b28565b6000828152600860205260409020600501556006546112ec9034612b28565b6006556007546112fd906001612b28565b6007556000818152600860205260408082206003015490516001600160a01b03909116913480156108fc02929091818181858888f19350505050158015611348573d6000803e3d6000fd5b5060008181526008602090815260409182902060030154825134815292516001600160a01b0390911692339285927f2a65dbf206361ec5b7e1a49006ca2d3e8b357610ba89dd0693ffa4bed5e5b0799281900390910190a450565b336000908152600960205260409020546060906001600160a01b03166113ff576040805162461bcd60e51b815260206004820152600c60248201526b24b73b30b634b2102ab9b2b960a11b604482015290519081900360640190fd5b336000908152600960209081526040918290206001018054835181840281018401909452808452909183018282801561146157602002820191906000526020600020905b81546001600160a01b03168152600190910190602001808311611443575b5050505050905090565b336000908152600960205260409020546001600160a01b03166114c4576040805162461bcd60e51b815260206004820152600c60248201526b24b73b30b634b2102ab9b2b960a11b604482015290519081900360640190fd5b3360009081526009602052604090206008015460ff161515600114611530576040805162461bcd60e51b815260206004820152601b60248201527f5573657220697320616c72656164792043616d706169676e696e670000000000604482015290519081900360640190fd5b336000908152600960209081526040808320600801805460ff19169055600c909152902054600b8054909190811061156457fe5b600091825260209091200180546001600160a01b0319169055565b60065481565b336000908152600960205260409020546001600160a01b03166115de576040805162461bcd60e51b815260206004820152600c60248201526b24b73b30b634b2102ab9b2b960a11b604482015290519081900360640190fd5b336000908152600960205260409020600a01805460ff19166001179055565b611605612d95565b506040805160c08101825260055480825260208083018781528385018790526001600160a01b038616606085015260006080850181905260a085018190529283526008825293909120825181559251805192938493909261166d926001850192910190612dd4565b5060408201518051611689916002840191602090910190612dd4565b5060608201516003820180546001600160a01b0319166001600160a01b039092169190911790556080820151600482015560a090910151600591820155546116d2906001612b28565b60055550505050565b6116e3612e5c565b506040805160a08101825233815260208082018781529282018690526060820185905260808201849052600e805460018101825560009190915282517fbb7b4a454dc3493923482f07822329ed19e8244eff582cc204f8554c3620c3fd600590920291820180546001600160a01b0319166001600160a01b039092169190911781559351805193948594909361179d937fbb7b4a454dc3493923482f07822329ed19e8244eff582cc204f8554c3620c3fe01920190612dd4565b50604082015180516117b9916002840191602090910190612dd4565b50606082015180516117d5916003840191602090910190612dd4565b50608082015180516117f1916004840191602090910190612dd4565b5050600f5461180291506001612b28565b600f555050505050565b600b818154811061181c57600080fd5b6000918252602090912001546001600160a01b0316905081565b336000908152600960205260409020546001600160a01b0316156118a1576040805162461bcd60e51b815260206004820152601760248201527f5573657220416c72656164792052656769737465726564000000000000000000604482015290519081900360640190fd5b60608060608060606118b1612e94565b5060408051610160810182523380825260208083018881526000848601819052606085018b90526080850181905260a0850181905260c0850189905260e085018890526101008501819052610120850187905261014085018190529283526009825293909120825181546001600160a01b0319166001600160a01b039091161781559251805192938493909261194e926001850192910190612efb565b506040820151600282015560608201518051611974916003840191602090910190612d38565b506080820151600482015560a0820151600582015560c082015180516119a4916006840191602090910190612efb565b5060e082015180516119c0916007840191602090910190612f50565b5061010082015160088201805460ff191691151591909117905561012082015180516119f6916009840191602090910190612dd4565b506101409190910151600a918201805460ff191691151591909117905554611a1f906001612b28565b600a55505050505050565b600e8181548110611a3a57600080fd5b600091825260209182902060059091020180546001808301805460408051601f60026000199685161561010002969096019093169490940491820187900487028401870190528083526001600160a01b039093169550929390929190830182828015611ae75780601f10611abc57610100808354040283529160200191611ae7565b820191906000526020600020905b815481529060010190602001808311611aca57829003601f168201915b50505060028085018054604080516020601f6000196101006001871615020190941695909504928301859004850281018501909152818152959695945090925090830182828015611b795780601f10611b4e57610100808354040283529160200191611b79565b820191906000526020600020905b815481529060010190602001808311611b5c57829003601f168201915b5050505060038301805460408051602060026001851615610100026000190190941693909304601f8101849004840282018401909252818152949594935090830182828015611c095780601f10611bde57610100808354040283529160200191611c09565b820191906000526020600020905b815481529060010190602001808311611bec57829003601f168201915b5050505060048301805460408051602060026001851615610100026000190190941693909304601f8101849004840282018401909252818152949594935090830182828015611c995780601f10611c6e57610100808354040283529160200191611c99565b820191906000526020600020905b815481529060010190602001808311611c7c57829003601f168201915b5050505050905085565b600360208190526000918252604090912080546001820154600283015492909301549092919084565b6001600160a01b0381811660009081526009602052604090205416611d27576040805162461bcd60e51b815260206004820152600c60248201526b24b73b30b634b2102ab9b2b960a11b604482015290519081900360640190fd5b6001600160a01b0381166000908152600960205260409020600501543490611d50906001612b28565b6001600160a01b0380841660009081526009602090815260408083206005019490945533808352848320600681018054600181810183559186528486200180546001600160a01b03191684179055600782018054918201815585529284209092018690558252549251929091169183156108fc0291849190818181858888f19350505050158015611de5573d6000803e3d6000fd5b503360008181526009602090815260409182902054825185815292516001600160a01b0390911693927f4ff506b3374358c3c7af62afc6a28d4d0d352dd81ebd0f6ee2a89641c362aae092908290030190a35050565b60046020528160005260406000208181548110611e5757600080fd5b90600052602060002001600091509150505481565b336000908152600960205260409020546001600160a01b0316611ec5576040805162461bcd60e51b815260206004820152600c60248201526b24b73b30b634b2102ab9b2b960a11b604482015290519081900360640190fd5b3360009081526009602090815260408220600190810180549182018155835291200180546001600160a01b0319166001600160a01b0392909216919091179055565b6001546001600160a01b03163314611f66576040805162461bcd60e51b815260206004820152601d60248201527f596f7520617265206e6f742074686520636f6f7264696e61746f722021000000604482015290519081900360640190fd5b600254831115611faf576040805162461bcd60e51b815260206004820152600f60248201526e125b9d985b1a590815185cdac81251608a1b604482015290519081900360640190fd5b6000838152600360205260408120600190810154611fcc91612b28565b60008581526003602052604090206002015490915081111561202c576040805162461bcd60e51b8152602060048201526014602482015273105b1b08149bdd5b991cc810dbdb5c1b195d195960621b604482015290519081900360640190fd5b60008481526003602052604090206001808201839055849160040190612053908490612b89565b8154811061205d57fe5b90600052602060002001908051906020019061207a929190612dd4565b50600084815260036020819052604090912060028101549101546001600160a01b038416916108fc916120ac91612bcb565b6040518115909202916000818181858888f193505050501580156120d4573d6000803e3d6000fd5b50837fb8b9b7420ce876fd147a9284d5eed5f709fc3faafb9e8cdf3c6ece72e002e8c784426040518080602001838152602001828103825284818151815260200191508051906020019080838360005b8381101561213c578181015183820152602001612124565b50505050905090810190601f1680156121695780820380516001836020036101000a031916815260200191505b50935050505060405180910390a250505050565b6000546001600160a01b031633146121c9576040805162461bcd60e51b815260206004820152600a60248201526927b7363c9027bbb732b960b11b604482015290519081900360640190fd5b600080546001600160a01b0319166001600160a01b0392909216919091179055565b6001600160a01b0381811660009081526009602052604090205460609116612249576040805162461bcd60e51b815260206004820152600c60248201526b24b73b30b634b2102ab9b2b960a11b604482015290519081900360640190fd5b6001600160a01b038216600090815260096020908152604091829020600601805483518184028101840190945280845290918301828280156122b457602002820191906000526020600020905b81546001600160a01b03168152600190910190602001808311612296575b50505050509050919050565b600a5481565b600960208181526000928352604092839020805460028083015460048401546005850154600886015497860180548a516101006001831615026000190190911695909504601f8101899004890286018901909a528985526001600160a01b039095169892979196909560ff909216949193929083018282801561238a5780601f1061235f5761010080835404028352916020019161238a565b820191906000526020600020905b81548152906001019060200180831161236d57829003601f168201915b505050600a909301549192505060ff1687565b336000908152600960205260409020546001600160a01b03166123f6576040805162461bcd60e51b815260206004820152600c60248201526b24b73b30b634b2102ab9b2b960a11b604482015290519081900360640190fd5b336000908152600960205260409020600a01805460ff19169055565b600254600090612423906001612b89565b905090565b60055481565b6001600160a01b038281166000908152600960205260409020546060911661245857506060612611565b6000805b6001600160a01b0385166000908152600960205260409020600101548110156124df576001600160a01b03851660009081526009602052604090206001018054339190839081106124a957fe5b6000918252602090912001546001600160a01b031614156124cd57600191506124df565b6124d8816001612b28565b905061245c565b506001600160a01b038481166000908152600960205260409020541633148061250a57506001811515145b612553576040805162461bcd60e51b815260206004820152601560248201527443616e6e6f7420416363657373205265636f72647360581b604482015290519081900360640190fd5b6001600160a01b038416600090815260096020526040902060030180548490811061257a57fe5b600091825260209182902001805460408051601f60026000196101006001871615020190941693909304928301859004850281018501909152818152928301828280156126085780601f106125dd57610100808354040283529160200191612608565b820191906000526020600020905b8154815290600101906020018083116125eb57829003601f168201915b50505050509150505b92915050565b336000908152600960205260409020546001600160a01b0316612670576040805162461bcd60e51b815260206004820152600c60248201526b24b73b30b634b2102ab9b2b960a11b604482015290519081900360640190fd5b3360009081526009602052604090206004015461268d9082612b28565b3360009081526009602052604090206004015550565b336000908152600960205260409020546001600160a01b03166126c8576126c8611836565b336000908152600960205260409020600201546126e6906001612b28565b336000908152600960209081526040822060028101939093556003909201805460018101825590825290829020835161272793919092019190840190612dd4565b5050565b3360009081526004602090815260409182902080548351818402810184019094528084526060939283018282801561146157602002820191906000526020600020905b81548152602001906001019080831161276e575050505050905090565b60075481565b600f5481565b6008602090815260009182526040918290208054600180830180548651600293821615610100026000190190911692909204601f8101869004860283018601909652858252919492939092908301828280156128345780601f1061280957610100808354040283529160200191612834565b820191906000526020600020905b81548152906001019060200180831161281757829003601f168201915b50505060028085018054604080516020601f60001961010060018716150201909416959095049283018590048502810185019091528181529596959450909250908301828280156128c65780601f1061289b576101008083540402835291602001916128c6565b820191906000526020600020905b8154815290600101906020018083116128a957829003601f168201915b505050506003830154600484015460059094015492936001600160a01b039091169290915086565b6001600160a01b038181166000908152600960205260409020546060911661294c576040805162461bcd60e51b815260206004820152600c60248201526b24b73b30b634b2102ab9b2b960a11b604482015290519081900360640190fd5b6001600160a01b038216600090815260096020908152604091829020600701805483518184028101840190945280845290918301828280156122b457602002820191906000526020600020905b8154815260200190600101908083116129995750505050509050919050565b600d5481565b336000908152600960205260409020546001600160a01b0316612a17576040805162461bcd60e51b815260206004820152600c60248201526b24b73b30b634b2102ab9b2b960a11b604482015290519081900360640190fd5b3360009081526009602052604090206008015460ff1615612a7f576040805162461bcd60e51b815260206004820152601b60248201527f5573657220697320616c72656164792043616d706169676e696e670000000000604482015290519081900360640190fd5b600b805460018181019092557f0175b7a638427703f0dbe7bb9bbf987a2551717b34e79f33b5b1008d1fa01db90180546001600160a01b03191633908117909155600d546000918252600c6020526040909120819055612ade91612b28565b600d553360009081526009602081815260409092208351612b0793919092019190840190612dd4565b5050336000908152600960205260409020600801805460ff19166001179055565b600082820183811015612b82576040805162461bcd60e51b815260206004820152601b60248201527f536166654d6174683a206164646974696f6e206f766572666c6f770000000000604482015290519081900360640190fd5b9392505050565b6000612b8283836040518060400160405280601e81526020017f536166654d6174683a207375627472616374696f6e206f766572666c6f770000815250612c0d565b6000612b8283836040518060400160405280601a81526020017f536166654d6174683a206469766973696f6e206279207a65726f000000000000815250612ca4565b60008184841115612c9c5760405162461bcd60e51b81526004018080602001828103825283818151815260200191508051906020019080838360005b83811015612c61578181015183820152602001612c49565b50505050905090810190601f168015612c8e5780820380516001836020036101000a031916815260200191505b509250505060405180910390fd5b505050900390565b60008183612cf35760405162461bcd60e51b8152602060048201818152835160248401528351909283926044909101919085019080838360008315612c61578181015183820152602001612c49565b506000838581612cff57fe5b0495945050505050565b6040518060a0016040528060008152602001600081526020016000815260200160008152602001606081525090565b828054828255906000526020600020908101928215612d85579160200282015b82811115612d855782518051612d75918491602090910190612dd4565b5091602001919060010190612d58565b50612d91929150612f8a565b5090565b6040518060c0016040528060008152602001606081526020016060815260200160006001600160a01b0316815260200160008152602001600081525090565b828054600181600116156101000203166002900490600052602060002090601f016020900481019282612e0a5760008555612e50565b82601f10612e2357805160ff1916838001178555612e50565b82800160010185558215612e50579182015b82811115612e50578251825591602001919060010190612e35565b50612d91929150612fa7565b6040518060a0016040528060006001600160a01b03168152602001606081526020016060815260200160608152602001606081525090565b60405180610160016040528060006001600160a01b0316815260200160608152602001600081526020016060815260200160008152602001600081526020016060815260200160608152602001600015158152602001606081526020016000151581525090565b828054828255906000526020600020908101928215612e50579160200282015b82811115612e5057825182546001600160a01b0319166001600160a01b03909116178255602090920191600190910190612f1b565b828054828255906000526020600020908101928215612e505791602002820182811115612e50578251825591602001919060010190612e35565b80821115612d91576000612f9e8282612fbc565b50600101612f8a565b5b80821115612d915760008155600101612fa8565b50805460018160011615610100020316600290046000825580601f10612fe25750613000565b601f0160209004906000526020600020908101906130009190612fa7565b5056fe4e756d626572206f6620526f756e64732073686f756c64206265206c657373207468616e203130a2646970667358221220cefc1df8ba9fd0cc6231071d0d4408ed35bd06a090a8584a48322e953f0803b064736f6c63430007040033",
  "immutableReferences": {},
  "source": "/*\n   _____                  __  __    _\n  / ___/____ _____ ______/ /_/ /_  (_)\n  \\__ \\/ __ `/ __ `/ ___/ __/ __ \\/ /\n ___/ / /_/ / /_/ / /  / /_/ / / / /\n/____/\\__,_/\\__,_/_/   \\__/_/ /_/_/\n\n*/\n\n// SPDX-License-Identifier: MIT\npragma solidity >=0.7.0 <0.8.0;\n// pragma experimental ABIEncoderV2;\n\nlibrary SafeMath {\n\n    function add(uint256 a, uint256 b) internal pure returns (uint256) {\n        uint256 c = a + b;\n        require(c >= a, \"SafeMath: addition overflow\");\n\n        return c;\n    }\n\n    function sub(uint256 a, uint256 b) internal pure returns (uint256) {\n        return sub(a, b, \"SafeMath: subtraction overflow\");\n    }\n\n    function sub(uint256 a, uint256 b, string memory errorMessage) internal pure returns (uint256) {\n        require(b <= a, errorMessage);\n        uint256 c = a - b;\n\n        return c;\n    }\n\n    function mul(uint256 a, uint256 b) internal pure returns (uint256) {\n        if (a == 0) {\n            return 0;\n        }\n\n        uint256 c = a * b;\n        require(c / a == b, \"SafeMath: multiplication overflow\");\n\n        return c;\n    }\n\n    function div(uint256 a, uint256 b) internal pure returns (uint256) {\n        return div(a, b, \"SafeMath: division by zero\");\n    }\n\n    function div(uint256 a, uint256 b, string memory errorMessage) internal pure returns (uint256) {\n        require(b > 0, errorMessage);\n        uint256 c = a / b;\n        return c;\n    }\n\n}\n\n\n/// @title Primary Saarthi Contract\n/// @author Anudit Nagar\n/// @dev All function calls are currently implemented without side effects\n\ncontract Saarthi {\n\n    using SafeMath for uint256;\n\n    struct Task {\n        uint256 taskID;\n        uint256 currentRound;\n        uint256 totalRounds;\n        uint256 cost;\n        string[] modelHashes;\n    }\n\n    address owner;\n    address coordinatorAddress = address(0xBeb71662FF9c08aFeF3866f85A6591D4aeBE6e4E);\n\n    uint256 nextTaskID = 1;\n    mapping (uint256 => Task) public SaarthiTasks;\n    mapping (address => uint256[]) public UserTaskIDs;\n\n    event newTaskCreated(uint256 indexed taskID, address indexed _user, string _modelHash, uint256 _amt, uint256 _time);\n    event modelUpdated(uint256 indexed taskID, string _modelHash, uint256 _time);\n\n    event donatationToFund(uint256 indexed fund_id, address indexed sender, address indexed receiver, uint256 amount);\n    event donatationToCampaign(address indexed sender, address indexed receiver, uint256 amount);\n\n    constructor() {\n        owner = msg.sender;\n    }\n\n    /// @notice Updates the Owner of the Contract\n    function updateOwner(address _newOwner) public {\n        require(msg.sender == owner, \"Only Owner\");\n        owner = _newOwner;\n    }\n\n    /// @notice Create a new task for decentralized computation.\n    /// @param _modelHash IPFS Hash of the Model.\n    /// @param _rounds total number of training rounds.\n    function createTask(string memory _modelHash, uint256 _rounds) public payable {\n        require(_rounds < 10, \"Number of Rounds should be less than 10\");\n        uint256 taskCost = msg.value;\n\n        Task memory newTask;\n        newTask = Task({\n            taskID: nextTaskID,\n            currentRound: 1,\n            totalRounds: _rounds,\n            cost: taskCost,\n            modelHashes: new string[](_rounds)\n        });\n        newTask.modelHashes[0] = _modelHash;\n        SaarthiTasks[nextTaskID] = newTask;\n        UserTaskIDs[msg.sender].push(nextTaskID);\n        emit newTaskCreated(nextTaskID, msg.sender, _modelHash, taskCost, block.timestamp);\n\n        nextTaskID = nextTaskID.add(1);\n    }\n\n    /// @notice Create a new task for decentralized computation.\n    /// @param _taskID Id of the task.\n    /// @param _modelHash IPFS Hash of the Model.\n    /// @param computer address of the model computer.\n    function updateModelForTask(uint256 _taskID,  string memory _modelHash, address payable computer) public {\n        require(msg.sender == coordinatorAddress, \"You are not the coordinator !\");\n        require(_taskID <= nextTaskID, \"Invalid Task ID\");\n        uint256 newRound = SaarthiTasks[_taskID].currentRound.add(1);\n        require(newRound <= SaarthiTasks[_taskID].totalRounds, \"All Rounds Completed\");\n\n\n        SaarthiTasks[_taskID].currentRound = newRound;\n        SaarthiTasks[_taskID].modelHashes[newRound.sub(1)] = _modelHash;\n        computer.transfer(SaarthiTasks[_taskID].cost.div(SaarthiTasks[_taskID].totalRounds));\n        emit modelUpdated(_taskID, _modelHash, block.timestamp);\n\n    }\n\n    // function getTaskHashes(uint256 _taskID) public view returns (string[] memory) {\n    //     return (SaarthiTasks[_taskID].modelHashes);\n    // }\n\n\n    /// @notice Get the count of all the tasks in the network.\n    /// @return count\n    function getTaskCount() public view returns (uint256) {\n        return nextTaskID.sub(1);\n    }\n\n    /// @notice Get the task IDs of a user.\n    /// @return task IDs of the user.\n    function getTasksOfUser() public view returns (uint256[] memory) {\n        return UserTaskIDs[msg.sender];\n    }\n\n    struct Fund {\n        uint256 orgID;\n        string orgName;\n        string fundName;\n        address payable fundAddress;\n        uint256 donationAmount;\n        uint256 donationCnt;\n    }\n\n    uint256 public fundCnt = 0;\n    uint256 public totalDonationAmount = 0;\n    uint256 public totalDonationCnt = 0;\n    mapping (uint256 => Fund) public Funds;\n\n    /// @notice Create a new fund for donation.\n    /// @param _orgName Organization name.\n    /// @param _fundName Name of the fund.\n    /// @param _orgAdress address of the Organization.\n    function createFund(string memory _orgName,string memory _fundName, address payable _orgAdress) public {\n        Fund memory newfund;\n        newfund = Fund({\n            orgID: fundCnt,\n            orgName: _orgName,\n            fundName: _fundName,\n            fundAddress: _orgAdress,\n            donationAmount:0,\n            donationCnt:0\n        });\n\n        Funds[fundCnt] = newfund;\n        fundCnt = fundCnt.add(1);\n    }\n\n    /// @notice Donate to a Fund of choice.\n    /// @param _fundID ID of the Fund.\n    function donateToFund(uint256 _fundID) public payable{\n        require(_fundID <= fundCnt, \"Invalid Fund ID\");\n\n        Funds[_fundID].donationAmount = Funds[_fundID].donationAmount.add(msg.value);\n        Funds[_fundID].donationCnt = Funds[_fundID].donationCnt.add(1);\n\n        totalDonationAmount = totalDonationAmount.add(msg.value);\n        totalDonationCnt = totalDonationCnt.add(1);\n\n        Funds[_fundID].fundAddress.transfer(msg.value);\n        emit donatationToFund(_fundID, msg.sender, Funds[_fundID].fundAddress, msg.value);\n    }\n\n    struct User {\n        address payable userAddress;\n        address[] accessors;\n        uint256 recordHistoryCnt;\n        string[] recordHistory;\n        uint256 billAmount;\n        uint256 donationCnt;\n        address[] donationAddresses;\n        uint256[] donationAmounts;\n        bool hasCampaign;\n        string campaignData;\n        bool hasAllowedResearch;\n    }\n\n    mapping (address => User) public Users;\n    uint256 public UserCnt = 0;\n\n\n    /// @notice Add a new user to the network.\n    function addUser() public {\n        // already hash a history\n        require(Users[msg.sender].userAddress == address(0x0), \"User Already Registered\");\n\n        string[] memory newRecordHistory;\n        address[] memory newAccessors;\n        address[] memory newDonationAddresses;\n        uint256[] memory newDonationAmounts;\n        string memory newCampaignData;\n\n        User memory userTemp = User({\n            userAddress: msg.sender,\n            accessors: newAccessors,\n            recordHistoryCnt: 0,\n            recordHistory: newRecordHistory,\n            billAmount: 0,\n            donationCnt: 0,\n            donationAddresses: newDonationAddresses,\n            donationAmounts: newDonationAmounts,\n            hasCampaign: false,\n            campaignData: newCampaignData,\n            hasAllowedResearch: false\n        });\n\n        Users[msg.sender] = userTemp;\n        UserCnt = UserCnt.add(1);\n\n    }\n\n    /// @notice Add a new IPFS storage record for the user.\n    /// @param _recordHash IPFS hash of the record.\n    function addRecord(string memory _recordHash) public {\n        // already has a history\n        if(Users[msg.sender].userAddress == address(0x0)){\n            addUser();\n        }\n\n        Users[msg.sender].recordHistoryCnt = Users[msg.sender].recordHistoryCnt.add(1);\n        Users[msg.sender].recordHistory.push(_recordHash);\n    }\n\n    /// @notice Get the records of the user.\n    /// @param _user address of the user.\n    /// @param _index index location.\n    function getRecord(address _user, uint _index) public view returns (string memory records){\n        if (Users[_user].userAddress == address(0x0)){\n            string memory newRecordHistory;\n            return newRecordHistory;\n        }\n\n        bool allowed = false;\n        for(uint256 ind=0; ind<Users[_user].accessors.length; ind = ind.add(1)){\n            if (Users[_user].accessors[ind] == msg.sender){\n                allowed = true;\n                break;\n            }\n        }\n\n        require( (Users[_user].userAddress == msg.sender) || allowed == true, \"Cannot Access Records\");\n\n        return Users[_user].recordHistory[_index];\n\n    }\n\n    /// @notice Get the donation amounts of the user.\n    /// @param _user Address of the user.\n    function getDonationAmounts(address _user) public view returns (uint256[] memory donationAmounts){\n        require(Users[_user].userAddress != address(0x0), \"Invalid User\");\n        return Users[_user].donationAmounts;\n    }\n\n    /// @notice Get donation addresses of the user.\n    /// @param _user Address of the user.\n    function getDonationAddresses(address _user) public view returns (address[] memory donationAddresses){\n        require(Users[_user].userAddress != address(0x0), \"Invalid User\");\n        return Users[_user].donationAddresses;\n    }\n\n    /// @notice Allow access of the records of a user to a new user.\n    /// @param _address address of the user user.\n    function allowAccessToUser(address _address) public {\n        require(Users[msg.sender].userAddress != address(0x0), \"Invalid User\");\n        Users[msg.sender].accessors.push(_address);\n    }\n\n    /// @notice Allow access of the records to a predefined research address.\n    function allowAccessToResearch() public {\n        require(Users[msg.sender].userAddress != address(0x0), \"Invalid User\");\n        Users[msg.sender].hasAllowedResearch = true;\n    }\n\n    /// @notice Revoke research accesss.\n    function revokeAccessToResearch() public {\n        require(Users[msg.sender].userAddress != address(0x0), \"Invalid User\");\n        Users[msg.sender].hasAllowedResearch = false;\n    }\n\n    /// @notice get a list of authorized accessors.\n    /// @return list of accesssors authorized.\n    function getAccessors() public view returns(address[] memory){\n        require(Users[msg.sender].userAddress != address(0x0), \"Invalid User\");\n        return Users[msg.sender].accessors;\n    }\n\n    /// @notice Donate to a User Campaign.\n    /// @param _user Address of the Donation Receiver.\n    function donateToUser(address _user) public payable{\n        require(Users[_user].userAddress != address(0x0), \"Invalid User\");\n\n        uint256 donationAmount = msg.value;\n\n        Users[_user].donationCnt = Users[_user].donationCnt.add(1);\n        Users[msg.sender].donationAddresses.push(msg.sender);\n        Users[msg.sender].donationAmounts.push(donationAmount);\n\n        Users[msg.sender].userAddress.transfer(donationAmount);\n        emit donatationToCampaign(msg.sender, Users[msg.sender].userAddress, donationAmount);\n    }\n\n    /// @notice Bill a user of medical expenses.\n    /// @param _amt  Amount to bill.\n    function billUser(uint256 _amt) public {\n        require(Users[msg.sender].userAddress != address(0x0), \"Invalid User\");\n        Users[msg.sender].billAmount = Users[msg.sender].billAmount.add(_amt);\n    }\n\n    address[] public Campaigns;\n    mapping (address => uint256) internal CampaignsToIndex;\n    uint256 public campaignCnt = 0;\n\n    /// @notice Create a new user campaign for donation.\n    /// @param _campaignData details about a campaign.\n    function createCampaign(string memory _campaignData) public {\n        require(Users[msg.sender].userAddress != address(0x0), \"Invalid User\");\n        require(Users[msg.sender].hasCampaign == false, \"User is already Campaigning\");\n\n        Campaigns.push(msg.sender);\n        CampaignsToIndex[msg.sender] = campaignCnt;\n        campaignCnt = campaignCnt.add(1);\n        Users[msg.sender].campaignData = _campaignData;\n        Users[msg.sender].hasCampaign = true;\n    }\n\n    /// @notice Stop a campaign\n    function stopCampaign() public {\n        require(Users[msg.sender].userAddress != address(0x0), \"Invalid User\");\n        require(Users[msg.sender].hasCampaign == true, \"User is already Campaigning\");\n\n        Users[msg.sender].hasCampaign = false;\n        delete Campaigns[CampaignsToIndex[msg.sender]];\n    }\n\n    struct Report {\n        address userAddress;\n        string userName;\n        string location;\n        string file;\n        string details;\n    }\n\n    Report[] public Reports;\n    uint256 public reportCnt = 0;\n\n    /// @notice Create an anonymous report.\n    /// @param _userName name of the reporter.\n    /// @param _location lcoation of the report.\n    /// @param _file IPFS hash of the report.\n    /// @param _details AAdditional details about the report.\n    function fileReport(string memory _userName, string memory _location, string memory _file, string memory _details) public {\n\n        Report memory tempreport = Report({\n            userAddress:msg.sender,\n            userName:_userName,\n            location:_location,\n            file:_file,\n            details:_details\n        });\n        Reports.push(tempreport);\n        reportCnt = reportCnt.add(1);\n\n    }\n\n\n}\n",
  "sourcePath": "D:/Users/anudit/Documents/GitHub/consensys-fp/contracts/Saarthi.sol",
  "compiler": {
    "name": "solc",
    "version": "0.7.4+commit.3f05b770.Emscripten.clang"
  },
  "schemaVersion": "3.3.2",
  "updatedAt": "2020-11-15T18:25:25.851Z",
  "networkType": "ethereum",
  "devdoc": {
    "author": "Anudit Nagar",
    "details": "All function calls are currently implemented without side effects",
    "kind": "dev",
    "methods": {
      "addRecord(string)": {
        "params": {
          "_recordHash": "IPFS hash of the record."
        }
      },
      "allowAccessToUser(address)": {
        "params": {
          "_address": "address of the user user."
        }
      },
      "billUser(uint256)": {
        "params": {
          "_amt": "Amount to bill."
        }
      },
      "createCampaign(string)": {
        "params": {
          "_campaignData": "details about a campaign."
        }
      },
      "createFund(string,string,address)": {
        "params": {
          "_fundName": "Name of the fund.",
          "_orgAdress": "address of the Organization.",
          "_orgName": "Organization name."
        }
      },
      "createTask(string,uint256)": {
        "params": {
          "_modelHash": "IPFS Hash of the Model.",
          "_rounds": "total number of training rounds."
        }
      },
      "donateToFund(uint256)": {
        "params": {
          "_fundID": "ID of the Fund."
        }
      },
      "donateToUser(address)": {
        "params": {
          "_user": "Address of the Donation Receiver."
        }
      },
      "fileReport(string,string,string,string)": {
        "params": {
          "_details": "AAdditional details about the report.",
          "_file": "IPFS hash of the report.",
          "_location": "lcoation of the report.",
          "_userName": "name of the reporter."
        }
      },
      "getAccessors()": {
        "returns": {
          "_0": "list of accesssors authorized."
        }
      },
      "getDonationAddresses(address)": {
        "params": {
          "_user": "Address of the user."
        }
      },
      "getDonationAmounts(address)": {
        "params": {
          "_user": "Address of the user."
        }
      },
      "getRecord(address,uint256)": {
        "params": {
          "_index": "index location.",
          "_user": "address of the user."
        }
      },
      "getTaskCount()": {
        "returns": {
          "_0": "count"
        }
      },
      "getTasksOfUser()": {
        "returns": {
          "_0": "task IDs of the user."
        }
      },
      "updateModelForTask(uint256,string,address)": {
        "params": {
          "_modelHash": "IPFS Hash of the Model.",
          "_taskID": "Id of the task.",
          "computer": "address of the model computer."
        }
      }
    },
    "title": "Primary Saarthi Contract",
    "version": 1
  },
  "userdoc": {
    "kind": "user",
    "methods": {
      "addRecord(string)": {
        "notice": "Add a new IPFS storage record for the user."
      },
      "addUser()": {
        "notice": "Add a new user to the network."
      },
      "allowAccessToResearch()": {
        "notice": "Allow access of the records to a predefined research address."
      },
      "allowAccessToUser(address)": {
        "notice": "Allow access of the records of a user to a new user."
      },
      "billUser(uint256)": {
        "notice": "Bill a user of medical expenses."
      },
      "createCampaign(string)": {
        "notice": "Create a new user campaign for donation."
      },
      "createFund(string,string,address)": {
        "notice": "Create a new fund for donation."
      },
      "createTask(string,uint256)": {
        "notice": "Create a new task for decentralized computation."
      },
      "donateToFund(uint256)": {
        "notice": "Donate to a Fund of choice."
      },
      "donateToUser(address)": {
        "notice": "Donate to a User Campaign."
      },
      "fileReport(string,string,string,string)": {
        "notice": "Create an anonymous report."
      },
      "getAccessors()": {
        "notice": "get a list of authorized accessors."
      },
      "getDonationAddresses(address)": {
        "notice": "Get donation addresses of the user."
      },
      "getDonationAmounts(address)": {
        "notice": "Get the donation amounts of the user."
      },
      "getRecord(address,uint256)": {
        "notice": "Get the records of the user."
      },
      "getTaskCount()": {
        "notice": "Get the count of all the tasks in the network."
      },
      "getTasksOfUser()": {
        "notice": "Get the task IDs of a user."
      },
      "revokeAccessToResearch()": {
        "notice": "Revoke research accesss."
      },
      "stopCampaign()": {
        "notice": "Stop a campaign"
      },
      "updateModelForTask(uint256,string,address)": {
        "notice": "Create a new task for decentralized computation."
      },
      "updateOwner(address)": {
        "notice": "Updates the Owner of the Contract"
      }
    },
    "version": 1
  }
}